S01100000000486578766965772056312E3009
S3250001800000EC002081840100F5B10300F7B10300F9B10300FBB10300FDB10300E984010078
S32500018020E9840100E9840100E9840100F1950100FFB10300E984010091960100F596010093
S32500018040F98A0300098B0300198B0300298B0300398B0300498B0300598B0300698B030022
S32500018060798B0300898B0300998B0300E9840100E9840100E9840100E9840100E98401008E
S32500018080A98B0300E9840100E9840100E9840100E9840100E9840100E9840100E9840100A0
S325000180A0E9840100E9840100E9840100E9840100E9840100E9840100E9840100C17A030079
S325000180C0C1780300057A030069790300E9840100E9840100E9840100E9840100498F030063
S325000180E0E9840100E9840100E9840100E9840100E9840100E9840100E9840100E984010009
S3250001810069500300CD500300E9840100E9840100E9840100D987030061880300E984010075
S325000181208588030011890300E9840100E9840100E9840100E9840100E9840100E9840100F7
S32500018140E9840100E9840100E9840100E9840100E9840100E9840100E9840100E9840100A8
S32500018160E9840100E9840100E9840100E9840100E9840100E9840100E9840100E984010088
S32500018180E9840100E9840100E9840100E9840100E9840100E9840100E9840100E984010068
S325000181A0E9840100E9840100E9840100E9840100E9840100E9840100E9840100E984010048
S325000181C0E9840100E9840100E9840100E9840100E9840100E9840100E9840100E984010028
S325000181E0E9840100E9840100E98401007554030081540300E9840100E9840100E984010040
S325000182008D540300E9840100E984010045540300515403005D54030069540300E984010071
S32500018220E9840100E9840100E9840100E9840100E9840100E9840100E9840100E9840100C7
S32500018240E9840100E9840100E9840100E9840100E9840100E9840100E9840100E9840100A7
S32500018260E9840100E9840100E9840100E9840100E9840100E9840100E9840100E984010087
S32500018280E9840100E9840100E9840100E9840100E9840100E9840100E9840100E984010067
S325000182A0E9840100E9840100E9840100E9840100E9840100E9840100E9840100E984010047
S325000182C0E9840100E9840100E9840100E9840100E9840100E9840100E9840100E984010027
S325000182E0E9840100E9840100E9840100E9840100E9840100E9840100E9840100E984010007
S32500018300E9840100E9840100E9840100E9840100E9840100E9840100E9840100E9840100E6
S32500018320E9840100E9840100E9840100E9840100E9840100E9840100E9840100E9840100C6
S32500018340E9840100E9840100E9840100E9840100E9840100E9840100E9840100E9840100A6
S32500018360E9840100E9840100E9840100E9840100E9840100E9840100E9840100E984010086
S32500018380E9840100E9840100E9840100E9840100E9840100E9840100E9840100E984010066
S325000183A0E9840100E9840100E9840100E9840100E9840100E9840100E9840100E984010046
S325000183C0E9840100E9840100E9840100E9840100E9840100E9840100E9840100E984010026
S325000183E0E9840100E9840100E9840100E9840100E9840100E9840100E9840100E984010006
S32500018400DC740400486F04008184010055AA5AA50000000000000000000000000000000042
S32500018420000000000000000000000000000000000000000000000000000000000000000035
S3250001844010B5054C237833B9044B13B10448AFF300800123237010BD0080FF1F00000000D5
S32500018460AC74040008B5034B1BB103490348AFF3008008BD000000000480FF1FAC740400B6
S3250001848072B64FF000014FF000024FF000034FF000044FF000054FF000064FF00007B846DA
S325000184A0B946BA46BB46BC460A490B4A521A013A05DD0020042308601944043AFBDA074814
S325000184C08546074880470748804762B622F098FEFEE700000000FF1F00EC002000EC0020C3
S325000184E005F801000DF70100FFF7FEBF43465F424153455F56303030310000BF81F00041D5
S3250001850002E000BF83F0004330B54FEA41044FEA430594EA050F08BF90EA020F1FBF54EA19
S32500018520000C55EA020C7FEA645C7FEA655C00F0E2804FEA5454D4EB5555B8BF6D420CDDDD
S325000185402C4480EA020281EA030382EA000083EA010180EA020281EA0303362D88BF30BD74
S3250001856011F0004F4FEA01314FF4801C4CEA113102D0404261EB410113F0004F4FEA03333F
S325000185804CEA133302D0524263EB430394EA050F00F0A780A4F10104D5F1200E0DDB02FA43
S325000185A00EFC22FA05F2801841F1000103FA0EF2801843FA05F359410EE0A5F120050EF1C0
S325000185C0200E012A03FA0EFC28BF4CF0020C43FA05F3C01851EBE37101F0004507D54FF015
S325000185E0000EDCF1000C7EEB00006EEB0101B1F5801F1BD3B1F5001F0CD349085FEA300028
S325000186004FEA3C0C04F101044FEA445212F5800F80F09A80BCF1004F08BF5FEA500C50F140
S32500018620000041EB045141EA050130BD5FEA4C0C404141EB0101013C28BFB1F5801FE9D220
S3250001864091F0000F04BF01460020B1FA81F308BF2033A3F10B03B3F120020CDA0C3208DDAF
S3250001866002F1140CC2F10C0201FA0CF021FA02F10CE002F11402D8BFC2F1200C01FA02F1C1
S3250001868020FA0CFCDCBF41EA0C019040E41AA2BF01EB0451294330BD6FEA04041F3C1CDA63
S325000186A00C340EDC04F11404C4F1200220FA04F001FA02F340EA030021FA04F345EA030135
S325000186C030BDC4F10C04C4F1200220FA02F001FA04F340EA0300294630BD21FA04F0294605
S325000186E030BD94F0000F83F4801306BF81F480110134013D4EE77FEA645C18BF7FEA655C4C
S3250001870029D094EA050F08BF90EA020F05D054EA000C04BF1946104630BD91EA030F1EBF87
S325000187200021002030BD5FEA545C05D14000494128BF41F0004130BD14F580043CBF01F5A7
S32500018740801130BD01F0004545F0FE4141F470014FF0000030BD7FEA645C1ABF1946104661
S325000187607FEA655C1CBF0B46024650EA013406BF52EA033591EA030F41F4002130BD00BF1D
S3250001878090F0000F04BF0021704730B54FF4806404F132044FF000054FF0000150E700BFF7
S325000187A090F0000F04BF0021704730B54FF4806404F1320410F0004548BF40424FF0000143
S325000187C03EE700BF42004FEAE2014FEA31014FEA02701FBF12F07F4393F07F4F81F0605125
S325000187E0704732F07F4208BF704793F07F4F04BF41F40021704730B54FF4607401F0004507
S3250001880021F000411CE700BF50EA010208BF704730B54FF000050AE050EA010208BF7047B4
S3250001882030B511F0004502D5404261EB41014FF4806404F132045FEA915C3FF4D8AE4FF09F
S3250001884003025FEADC0C18BF03325FEADC0C18BF033202EBDC02C2F1200300FA03FC20FADE
S3250001886002F001FA03FE40EA0E0021FA02F11444BDE600BF4A0011D212F5001211D20DD5F8
S325000188806FF47873B3EB62520ED44FEAC12343F0004343EA505323FA02F070474FF00000E7
S325000188A0704750EA013002D14FF0FF3070474FF00000704753B94AB9002908BF00281CBF9F
S325000188C04FF0FF314FF0FF3000F074B9ADF1080C6DE904CE00F006F8DDF804E0DDE902232B
S325000188E004B070472DE9F047089D04468E46002B4DD18A42944669D9B2FA82F252B101FAA7
S3250001890002F3C2F1200120FA01F10CFA02FC41EA030E94404FEA1C48210CBEFBF8F61FFADD
S325000189208CF708FB16E341EA034306FB07F199420AD91CEB030306F1FF3080F01F8199426B
S3250001894040F21C81023E63445B1AA4B2B3FBF8F008FB103344EA034400FB07F7A7420AD979
S325000189601CEB040400F1FF3380F00A81A74240F207816444023840EA0640E41B00261DB1DB
S32500018980D4400023C5E900433146BDE8F0878B4209D9002D00F0EF800026C5E9000130468F
S325000189A03146BDE8F087B3FA83F6002E4AD18B4202D3824200F2F980841A61EB03030120CC
S325000189C09E46002DE0D0C5E9004EDDE702B9FFDEB2FA82F2002A40F09280A1EB0C014FEA19
S325000189E01C471FFA8CFE0126200CB1FBF7F307FB131140EA01410EFB03F0884208D91CEB41
S32500018A00010103F1FF3802D2884200F2CB804346091AA4B2B1FBF7F007FB101144EA01441C
S32500018A200EFB00FEA64508D91CEB040400F1FF3102D2A64500F2BB800846A4EB0E0440EA27
S32500018A4003409CE7C6F12007B34022FA07FC4CEA030C20FA07F401FA06F31C43F9404FEA3A
S32500018A601C4900FA06F3B1FBF9F8200C1FFA8CFE09FB181140EA014108FB0EF0884202FACB
S32500018A8006F20BD91CEB010108F1FF3A80F08880884240F28580A8F102086144091AA4B27E
S32500018AA0B1FBF9F009FB101144EA014100FB0EFE8E4508D91CEB010100F1FF346CD28E458C
S32500018AC06AD90238614440EA0840A0FB0294A1EB0E01A142C846A64656D353D05DB1B3EB5A
S32500018AE0080261EB0E0101FA07F722FA06F3F1401F43C5E9007100263146BDE8F087C2F1DE
S32500018B002003D8400CFA02FC21FA03F3914001434FEA1C471FFA8CFEB3FBF7F007FB1036CD
S32500018B200B0C43EA064300FB0EF69E4204FA02F408D91CEB030300F1FF382FD29E422DD9D1
S32500018B40023863449B1B89B2B3FBF7F607FB163341EA034106FB0EF38B4208D91CEB01012E
S32500018B6006F1FF3816D28B4214D9023E6144C91A46EA004638E72E46284605E70646E3E6DE
S32500018B801846F8E64B45A9D2B9EB020864EB0C0E0138A3E74646EAE7204694E74046D1E731
S32500018BA0D0467BE7023B614432E7304609E76444023842E7704700BF000000000000000054
S32500018BC090F800F06DE9024520F007016FF0000C10F0070491F820F040F049804FF0000416
S32500018BE06FF00700D1E9002391F840F000F1080082FA4CF2A4FA8CF283FA4CF3A2FA8CF3CC
S32500018C004BBBD1E9022382FA4CF200F10800A4FA8CF283FA4CF3A2FA8CF3E3B9D1E9042345
S32500018C2082FA4CF200F10800A4FA8CF283FA4CF3A2FA8CF37BB9D1E9062301F1200182FAE1
S32500018C404CF200F10800A4FA8CF283FA4CF3A2FA8CF3002BC6D0002A04BF04301A4612BAD5
S32500018C60B2FA82F2FDE8024500EBD2007047D1E9002304F00305C4F100004FEAC50514F098
S32500018C80040F91F840F00CFA05F562EA05021CBF63EA050362464FF00004A9E70000000003
S32500018CA001F0FF01102A2BDB10F0070F08D010F8013B013A8B422DD010F0070F42B3F6D173
S32500018CC0F0B441EA012141EA014122F007047FF000070023F0E80256083C85EA010586EA20
S32500018CE0010685FA47F5A3FA87F586FA47F6A5FA87F68EB9EED1F0BC01F0FF0102F007021B
S32500018D0032B110F8013B013A83EA010313B1F8D10020704701387047002D06BF354603387D
S32500018D20073815F0010F07D1013015F4807F02BF013015F4C03F0130F0BC0138704700BF41
S32500018D4070B54FF0FF0C4CF4E06C1CEA11541DBF1CEA135594EA0C0F95EA0C0F00F0DEF863
S32500018D602C4481EA030621EA4C5123EA4C5350EA013518BF52EA033541F4801143F4801369
S32500018D8038D0A0FB02CE4FF00005E1FB02E506F00042E0FB03E54FF00006E1FB03569CF051
S32500018DA0000F18BF4EF0010EA4F1FF04B6F5007F64F5407404D25FEA4E0E6D4146EB060644
S32500018DC042EAC62141EA55514FEAC52040EA5E504FEACE2EB4F1FD0C88BFBCF5E06F1ED892
S32500018DE0BEF1004F08BF5FEA500E50F1000041EB045170BD06F0004646EA010140EA020077
S32500018E0081EA0301B4EB5C04C2BFD4EB0C0541EA045170BD41F480114FF0000E013C00F39C
S32500018E20AB8014F1360FDEBF002001F0004170BDC4F10004203C35DA0C341BDC04F1140432
S32500018E40C4F1200500FA05F320FA04F001FA05F240EA020001F0004221F0004110EBD37050
S32500018E6021FA04F642EB06015EEA430E08BF20EAD37070BDC4F10C04C4F1200500FA04F338
S32500018E8020FA05F001FA04F240EA020001F0004110EBD37041F100015EEA430E08BF20EA92
S32500018EA0D37070BDC4F1200500FA05F24EEA020E20FA04F301FA05F243EA020321FA04F0E4
S32500018EC001F0004121FA04F220EA020000EBD3705EEA430E08BF20EAD37070BD94F0000FA1
S32500018EE00FD101F00046400041EB010111F4801F08BF013CF7D041EA060195F0000F18BFDA
S32500018F00704703F00046520043EB030313F4801F08BF013DF7D043EA0603704794EA0C0FDC
S32500018F200CEA135518BF95EA0C0F0CD050EA410618BF52EA4306D1D181EA030101F000415F
S32500018F404FF0000070BD50EA410606BF1046194652EA430619D094EA0C0F02D150EA013658
S32500018F6013D195EA0C0F05D152EA03361CBF104619460AD181EA030101F0004141F0FE41A5
S32500018F8041F470014FF0000070BD41F0FE4141F4780170BD70B54FF0FF0C4CF4E06C1CEA6C
S32500018FA011541DBF1CEA135594EA0C0F95EA0C0F00F0A7F8A4EB050481EA030E52EA0335B1
S32500018FC04FEA013100F088804FEA03334FF0805545EA131343EA12634FEA022245EA1115FB
S32500018FE045EA10654FEA00260EF000419D4208BF964244F1FD0404F5407402D25B084FEA57
S325000190003202B61A65EB03055B084FEA32024FF480104FF4002CB6EB020E75EB030E22BFD8
S32500019020B61A754640EA0C005B084FEA3202B6EB020E75EB030E22BFB61A754640EA5C0084
S325000190405B084FEA3202B6EB020E75EB030E22BFB61A754640EA9C005B084FEA3202B6EB74
S32500019060020E75EB030E22BFB61A754640EADC0055EA060E18D04FEA051545EA16754FEA75
S3250001908006164FEAC30343EA52734FEAC2025FEA1C1CC0D111F4801F0BD141EA00014FF0C2
S325000190A000004FF0004CB6E711F4801F04BF01430020B4F1FD0C88BFBCF5E06F3FF6AFAE2F
S325000190C0B5EB030C04BFB6EB020C5FEA500C50F1000041EB045170BD0EF0004E4EEA11310E
S325000190E014EB5C04C2BFD4EB0C0541EA045170BD41F480114FF0000E013C90E645EA060E03
S325000191008DE60CEA135594EA0C0F08BF95EA0C0F3FF43BAF94EA0C0F0AD150EA01347FF40A
S3250001912034AF95EA0C0F7FF425AF104619462CE795EA0C0F06D152EA03353FF4FDAE104683
S32500019140194622E750EA410618BF52EA43067FF4C5AE50EA41047FF40DAF52EA43057FF438
S32500019160EBAE12E74FF0FF3C06E000BF4FF0010C02E000BF4FF0010C4DF804CD4FEA410C62
S325000191807FEA6C5C4FEA430C18BF7FEA6C5C1BD001B050EA410C0CBF52EA430C91EA030F01
S325000191A002BF90EA020F0020704710F1000F91EA030F58BF994208BF90422CBFD8176FEA2A
S325000191C0E37040F0010070474FEA410C7FEA6C5C02D150EA013C07D14FEA430C7FEA6C5CBB
S325000191E0D6D152EA033CD3D05DF8040B704700BF8446104662468C461946634600E000BF88
S3250001920001B5FFF7B7FF002848BF10F1000F01BD4DF808EDFFF7F4FF0CBF012000205DF864
S3250001922008FB00BF4DF808EDFFF7EAFF34BF012000205DF808FB00BF4DF808EDFFF7E0FFF2
S3250001924094BF012000205DF808FB00BF4DF808EDFFF7CEFF94BF012000205DF808FB00BFB4
S325000192604DF808EDFFF7C4FF34BF012000205DF808FB00BF4FEA410C7FEA6C5C02D150EAE5
S32500019280013C0AD14FEA430C7FEA6C5C02D152EA033C02D14FF0000070474FF001007047E8
S325000192A04FEA410212F5001215D211D56FF47873B3EB625212D94FEAC12343F0004343EAFA
S325000192C0505311F0004F23FA02F018BF404270474FF00000704750EA013005D111F00040FD
S325000192E008BF6FF0004070474FF00000704700BFF1EE103A43F08073E1EE103A704700BFB7
S32500019300124A12F0070F1ED0D11D21F00701C1F5284313440A460E48026000214160134444
S32500019320083B23F007030B48036059601960991A51601360084B1960084B1960084B4FF0DD
S3250001934000421A6070474FF42843E4E72080FF1F342800201C80FF1F28280020242800204A
S3250001936020280020164B1A461B688342FBD3516802EB010C844509D0416800EB010C634509
S3250001938009D00360904219D0106070474068014451601046F0E710B40A4C2468A3420BD077
S325000193A05B681944416013681B680360904200D010605DF8044B70470460F7E7704700BF5F
S325000193C0342800201C80FF1F70B5054601F08AF8364B1B68A3B1364B1B681D424ED135B1AD
S325000193E0083515F0070F02D025F007050835002D46D0304B1B68AB4251D32F4A146804E0B3
S32500019400FFF77EFFE7E722461C466368AB4202D22368002BF7D1254B1B68A34241D01668C9
S3250001942008362368136063685B1B102B10D9601910F0070F08D04FF0500383F31188BFF3CA
S325000194406F8FBFF34F8FFEE743606560FFF78AFF626818490B689B1A0B60184909688B424E
S3250001946001D216490B60124B1B681343636000232360134A13680133136002E0002600E042
S32500019480002601F0B5F816F0070F0CD04FF0500383F31188BFF36F8FBFF34F8FFEE700261D
S325000194A0EFE70026EDE7304670BD00BF1C80FF1F20280020242800203428002028280020F9
S325000194C02C280020002834D038B50446A0F1080550F8043C174A1268134208D14FF05003ED
S325000194E083F31188BFF36F8FBFF34F8FFEE750F8081C41B14FF0500383F31188BFF36F8F82
S32500019500BFF34F8FFEE723EA020340F8043C00F0E9FF54F8041C084A13680B441360284604
S32500019520FFF720FF054A13680133136001F060F838BD70472028002024280020302800205D
S3250001954082B0002301930D4B1B68B3F1FF3F08D04FF0500383F31188BFF36F8FBFF34F8FA5
S32500019560FEE74FF0500383F31188BFF36F8FBFF34F8F019B002BFCD002B070470004FF1F00
S3250001958008480068006880F308884FF0000080F3148862B661B6BFF34F8FBFF36F8F00DF05
S325000195A000BF000008ED00E0DFF80C00016841F4700101607047000088ED00E04FF080737F
S325000195C040F8043C21F0010140F8081C054B40F80C3C40F8202C6FF0020340F8243C4438D1
S325000195E0704700BF419501000000000000000000074B19680868B0E8F04F80F30988BFF347
S325000196006F8F4FF0000080F311887047AFF30080842800204FF0500383F31188BFF36F8F04
S32500019620BFF34F8F0B4A136801331360012B00D070474FF0E023D3F8043D13F0FF0FF7D043
S325000196404FF0500383F31188BFF36F8FBFF34F8FFEE700BF0004FF1F094B1B6843B94FF04A
S32500019660500383F31188BFF36F8FBFF34F8FFEE7013B034A13600BB983F31188704700BF17
S325000196800004FF1F000000000000000000000000EFF30980BFF36F8F154B1A681EF0100F77
S325000196A008BF20ED108A20E9F04F10602DE909004FF0500080F31188BFF34F8FBFF36F8F83
S325000196C001F028F84FF0000080F3118809BC19680868B0E8F04F1EF0100F08BFB0EC108A70
S325000196E080F30988BFF36F8F704700BFAFF300808428002008B54FF0500383F31188BFF33B
S325000197006F8FBFF34F8F00F003FF28B14FF0E0234FF08052C3F8042D002383F3118808BDB3
S325000197204FF0E022002313619361054B1B680549A1FB03139B09013B53610723136170479A
S32500019740340BFF1FD34D62104FF0E023D3F8002D3E4B9A421CD04FF0E023D3F8002D3C4BC7
S325000197609A421ED030B583B03A4B1A78D2B20192FF221A701B78DBB28DF803309DF8033087
S3250001978003F05003344A1370344B07221A601BE04FF0500383F31188BFF36F8FBFF34F8F7D
S325000197A0FEE74FF0500383F31188BFF36F8FBFF34F8FFEE7294A1368013B13609DF8033092
S325000197C05B00DBB28DF803309DF8033013F0800FF0D1224B1B68032B08D04FF0500383F3C9
S325000197E01188BFF36F8FBFF34F8FFEE71B021B4A136003F4E0631360019BDBB2154A1370F7
S325000198004FF0E024D4F8203D43F47003C4F8203DD4F8203D43F07043C4F8203DFFF780FF75
S3250001982000250F4B1D60FFF7BFFED4F8343F43F04043C4F8343F1EF063FBFFF7A1FE00F05D
S3250001984069FFFFF77DFE284603B030BD71C20F4170C20F4100E400E03C2800204028002045
S325000198600004FF1FEFF305830F2B0FD9114A9B5CDBB2114A12789A4208D94FF0500383F3AA
S325000198801188BFF36F8FBFF34F8FFEE74FF0E023D3F80C3D03F4E063084A1268934208D9F1
S325000198A04FF0500383F31188BFF36F8FBFF34F8FFEE77047F0E300E03C2800204028002065
S325000198C000F1080343604FF0FF328260C360036100230360704700230361704743684B6038
S325000198E09A688A60516099600861036801330360704730B40D68B5F1FF3F11D000F108038F
S325000199001C465B681A68AA42FAD963684B6099608C606160086103680133036030BC7047B0
S325000199200469F2E70369416882688A60416851605A68824206D0002202611A68013A1A607F
S325000199401868704782685A60F5E70346406A18B11B6B1868C0F10500704710B50446FFF715
S3250001996059FEA26BE36B9A4204D00024FFF774FE204610BD0124F9E710B50446FFF74AFE6D
S32500019980A36B23B90124FFF767FE204610BD0024F9E770B504461546866B026C5AB9036878
S325000199A01BB100200136A66370BD806801F032F80023A360F6E76DB9406815F00BFC226CD9
S325000199C0636813446360A268934219D3236863602846E7E7C06815F0FDFB226C5142E368B5
S325000199E09B1AE3602268934202D2A3680B44E360022D01D00020D5E726B1013E0020D1E7CE
S32500019A002846CFE70020CDE70346026C6AB110B50846D9681144D9609C68A14201D3196857
S32500019A20D960D96815F0D6FB10BD704738B50546FFF7F0FD95F8454064B201E0013C64B2D4
S32500019A40002C0ADD6B6A43B105F1240000F0E2FE0028F3D000F072FFF0E7FF2385F8453002
S32500019A60FFF7FAFDFFF7D6FD95F8444064B201E0013C64B2002C0ADD2B6943B105F110002D
S32500019A8000F0C8FE0028F3D000F058FFF0E7FF2385F84430FFF7E0FD38BD38B5E0B10D4654
S32500019AA00446FFF7B7FD2368E26B216C01FB0230A0600020A0636360013A02FB0133E36083
S32500019AC0FF2384F8443084F845309DB9236963B9FFF7C2FD012038BD4FF0500383F3118812
S32500019AE0BFF36F8FBFF34F8FFEE704F1100000F091FEEDE704F11000FFF7E2FE04F12400EE
S32500019B00FFF7DEFEE4E738B51D46049C0B4649B92460E063236401212046FFF7BEFF84F859
S32500019B204C5038BD2260F4E740B94FF0500383F31188BFF36F8FBFF34F8FFEE7F0B583B099
S32500019B400C461546064601FB00F05030FFF73CFC074638B100902B4600F150022146304614
S32500019B60FFF7D1FF384603B0F0BD40B94FF0500383F31188BFF36F8FBFF34F8FFEE710B5B6
S32500019B800C46884208D24FF0500383F31188BFF36F8FBFF34F8FFEE702220021FFF7C4FF04
S32500019BA000B1846310BDF0B585B0019288B10F461D460446B1B1022D20D1E36B012B1DD0A8
S32500019BC04FF0500383F31188BFF36F8FBFF34F8FFEE74FF0500383F31188BFF36F8FBFF3B5
S32500019BE04F8FFEE7036C002BE5D04FF0500383F31188BFF36F8FBFF34F8FFEE700F0A4FEF4
S32500019C00064650B9019B8BB34FF0500383F31188BFF36F8FBFF34F8FFEE7002626E02A46AC
S32500019C2039462046FFF7B5FE636A23B9FFF714FD012005B0F0BD04F1240000F0EBFDF5E78F
S32500019C40FFF70AFD0020F4E702A800F029FE012619E0002384F8443021E0002384F84530FC
S32500019C6023E02046FFF7E2FE00F0C2FCFFF7D2FCA26BE36B9A42D2D3022DD0D0019B002BBA
S32500019C80DED0002EE0D0FFF7E7FC00F02BFCFFF7C1FC94F8442052B2B2F1FF3FD9D094F884
S32500019CA0452052B2B2F1FF3FD7D0FFF7D5FC01A902A800F001FED8B92046FFF74EFE002841
S32500019CC0CFD0019904F1100000F070FD2046FFF7ADFE00F08DFC0028C8D14FF0E0234FF020
S32500019CE08052C3F8042DBFF34F8FBFF36F8FBDE72046FFF79BFE00F07BFC002099E72DE9A9
S32500019D00F84390B10F4616461C460546B1B1022C20D1EB6B012B1DD04FF0500383F31188D1
S32500019D20BFF36F8FBFF34F8FFEE74FF0500383F31188BFF36F8FBFF34F8FFEE7036C002B97
S32500019D40E5D04FF0500383F31188BFF36F8FBFF34F8FFEE7FFF786FDEFF311894FF05003FA
S32500019D6083F31188BFF36F8FBFF34F8FAA6BEB6B9A4206D3022C04D0002089F31188BDE891
S32500019D80F88395F845804FFA88F8AB6B224639462846FFF7FEFDB8F1FF3F06D008F1010310
S32500019DA05BB285F845300120E7E76B6A0BB90120E3E705F1240000F02DFD18B126B1012035
S32500019DC03060DAE70120D8E70120D6E7F0B585B0019290B10F460446C1B100F0B5FD0646C0
S32500019DE000BB019B002B52D04FF0500383F31188BFF36F8FBFF34F8FFEE74FF0500383F3EA
S32500019E001188BFF36F8FBFF34F8FFEE7036C002BE3D04FF0500383F31188BFF36F8FBFF32D
S32500019E204F8FFEE7002632E039462046FFF7ECFD013DA563236923B9FFF70EFC012005B0D8
S32500019E40F0BD04F1100000F0E5FCF5E7FFF704FC0020F4E702A800F023FD012621E00023A6
S32500019E6084F8443029E0002384F845302BE02046FFF7DCFD00F0BCFB09E02046FFF7D6FDCF
S32500019E8000F0B6FB2046FFF777FD00283FD1FFF7C1FBA56B002DC7D1019B002BD6D0002EF0
S32500019EA0D8D0FFF7D9FB00F01DFBFFF7B3FB94F844305BB2B3F1FF3FD1D094F845305BB2DF
S32500019EC0B3F1FF3FCFD0FFF7C7FB01A902A800F0F3FC0028D1D12046FFF74EFD0028C6D0E0
S32500019EE0019904F1240000F061FC2046FFF79EFD00F07EFB0028CAD14FF0E0234FF08052E5
S32500019F00C3F8042DBFF34F8FBFF36F8FBFE7002095E770B584B0019158B10446036C8BB1E3
S32500019F204FF0500383F31188BFF36F8FBFF34F8FFEE74FF0500383F31188BFF36F8FBFF351
S32500019F404F8FFEE700F000FD054650B9019B5BB14FF0500383F31188BFF36F8FBFF34F8F6D
S32500019F60FEE70026354649E0064647E0013BA36323683BB123694BB9FFF76EFB0126304673
S32500019F8004B070BD00F0FAFDA060F3E704F1100000F040FCF0E746B14FF0500383F3118878
S32500019FA0BFF36F8FBFF34F8FFEE7FFF755FBE6E702A800F075FC01252AE0002384F8443014
S32500019FC032E0002384F8453034E0FFF723FBA06800F0CAFC0646FFF73FFB3BE02046FFF77B
S32500019FE025FD00F005FB09E02046FFF71FFD00F0FFFA2046FFF7C0FC002842D1FFF70AFBB0
S3250001A000A36B002BB2D1019B002BC4D0002DCFD0FFF722FB00F066FAFFF7FCFA94F8443007
S3250001A0205BB2B3F1FF3FC8D094F845305BB2B3F1FF3FC6D0FFF710FB01A902A800F03CFC8F
S3250001A0400028D1D12046FFF797FC0028C6D02368002BBAD0019904F1240000F0A7FB204697
S3250001A060FFF7E4FC00F0C4FA0028C7D14FF0E0234FF08052C3F8042DBFF34F8FBFF36F8F16
S3250001A080BCE70EB900267AE7FFF7C4FA2046FFF75CFC0146A06800F017FDFFF7DDFAF1E768
S3250001A0A00023072B0CD8074A52F833200AB10133F7E7044A42F8331002EBC30358607047B8
S3250001A0C0704700BF4428002070B504460D461646FFF7A0FA94F844305BB2B3F1FF3F0DD0FD
S3250001A0E094F845305BB2B3F1FF3F0BD0FFF7B4FAA36B5BB12046FFF799FC70BD002384F813
S3250001A1004430EDE7002384F84530EFE73246294604F1240000F062FBECE70000084B1B6810
S3250001A1201B6823B9074B4FF0FF321A607047044B1B68DB68DB685A68024B1A60704700BF6F
S3250001A140882800203429002010B50446006BFFF7B9F92046FFF7B6F910BD2DE9F04780469E
S3250001A1600D4617469946089EDDF824A00A9C9200A521206B15F03AF8236B07F18042013AC7
S3250001A18003EB820727F00707B5B34FF0000CBCF1090F0BD815F90C2004EB0C0383F83420BA
S3250001A1A015F90C3013B10CF1010CF0E7002384F83D30042E00D90426E662A6640025E564A8
S3250001A1C0201DFFF788FB04F11800FFF784FB2461C6F10506A6616462256584F854504A46F2
S3250001A1E041463846FFF7EAF92060BAF1000F01D0CAF80040BDE8F087002384F83430D8E78F
S3250001A20038B5002407E004EB840293000E481844FFF756FB0134042CF5D90C4D2846FFF74E
S3250001A2204FFB0B4C2046FFF74BFB0A48FFF748FB0948FFF745FB0948FFF742FB084B1D606E
S3250001A240084B1C6038BD00BF90280020082900201C290020402900206C2900205829002007
S3250001A260882800208C28002010B50446FFF7D2F91B4A1368013313601A4B1B685BB11A4B83
S3250001A2801B686BB9174B1B68DA6AE36A9A4207D8144B1C6004E0134B1C601368012B1BD0B4
S3250001A2A0124A1368013313602364E06A012383400F4A11680B43136000EB8000211D0D4BCD
S3250001A2C003EB8000FFF70AFBFFF7C6F9064B1B680BB1044B1B6810BDFFF792FFE0E700BF1D
S3250001A2E0F428002084280020542900200029002004290020902800200F4B1B68D3B110B51E
S3250001A300FFF788F90D4BDB68DC68201DFFF70AFB0B4A1368013B1360074A1368013B1360AE
S3250001A320FFF79AF92046FFF70FFF034B1B68002BE6D110BD704700BFF82800206C29002038
S3250001A340F428002070B504460D461D4B1E681D4B18680430FFF7E6FA50B91A4B1B68DA6AE3
S3250001A360012303FA02F218490B6823EA02030B60B4F1FF3F0DD03444124B1B685C60A642B4
S3250001A38010D9124B18680F4B19680431FFF7B1FA70BD002DEFD00B4B196804310C48FFF7D0
S3250001A3A09DFAF5E70B4B1868064B19680431FFF7A0FA094B1B68A342EAD9074B1C60E7E79B
S3250001A3C08029002084280020042900208C28002058290020882800203429002008B5FFF71F
S3250001A3E08BFF4FF0E0234FF08052C3F8042DBFF34F8FBFF36F8F1DF07FFDF0E72DE9F043A4
S3250001A40085B00746884614461E469000FEF7DCFFF0B181465820FEF7D7FF0546A0B1C0F8C8
S3250001A4203090D5B10023039302950D9B01930C9B00933346224641463846FFF78EFE284633
S3250001A440FFF712FF012005E04846FFF73BF8E8E74FF0FF3005B0BDE8F0834FF0FF30F9E7D9
S3250001A46000B583B0194B019300230093822218491848FFF7C3FF012807D0012808D0B0F180
S3250001A480FF3F1AD003B05DF804FB00F0E7FBF4E74FF0500383F31188BFF36F8FBFF34F8FF8
S3250001A4A00D4B4FF0FF321A600C4B01221A600C4B00221A60FFF748F9E4E74FF0500383F362
S3250001A4C01188BFF36F8FBFF34F8FFEE73029002080180400DDA30100342900205429002007
S3250001A4E080290020024A136801331360704700BFFC280020014B1868704700BF8029002059
S3250001A50008B5FFF7AFF9014B186808BD802900202E4B1B68002B53D170B52D4B1D680135DC
S3250001A5201D60C5B92B4B1B681B6843B14FF0500383F31188BFF36F8FBFF34F8FFEE7254A74
S3250001A5401168254B186810601960244A136801331360FFF7E3FD224B1B68AB4218D900204E
S3250001A56070BD1F4B4FF0FF321A60F8E71C4A1360F5E7E36A01229A401A49086802430A60F3
S3250001A58003EB83039A00314617481044FFF7A6F9104B1B681B68002BE3D00E4B1B68DB6889
S3250001A5A0DC6863689D42E1D3261D3046FFF7BAF9A36A002BDDD004F11800FFF7B3F9D8E73D
S3250001A5C00A4A13680133136000207047FC28002080290020882800208C28002038290020F5
S3250001A5E03429002004290020902800203C29002038B52D4B1B6843B94FF0500383F31188A8
S3250001A600BFF36F8FBFF34F8FFEE7FFF703F8264B1A68013A1A601B6813B9244B1B681BB960
S3250001A620FFF71AF8002038BD0024214B1B681BB31F4BDB68DC6804F11800FFF773F9251D73
S3250001A6402846FFF76FF9E06A01238340194A11680B43136000EB80002946174B03EB8000AF
S3250001A660FFF73CF9E26A154B1B68DB6A9A42DCD3134B01221A60D8E70CB1FFF74FFD114B94
S3250001A6801C6824B90E4B1B68CAE7013C07D0FFF73FFF0028F9D00A4B01221A60F5E7094B6A
S3250001A6A000221A60EEE700BFFC280020F42800204029002004290020902800208428002069
S3250001A6C0842900203C29002010B5A8B10446104B1B6843B14FF0500383F31188BFF36F8F96
S3250001A6E0BFF34F8FFEE7FFF7FDFE00212046FFF729FEFFF77DFF48B94FF0E0234FF0805283
S3250001A700C3F8042DBFF34F8FBFF36F8F10BD00BFFC280020204B1B681BB1204B01221A6074
S3250001A72070471E4B00221A601D4B1B68B3FA83F3DBB2C3F11F0303EB83018A0019498A58A5
S3250001A74042B94FF0500383F31188BFF36F8FBFF34F8FFEE7134903EB830082000A445068DC
S3250001A7604068506003EB830C4FEA8C0208321144884209D003EB83039A000A4B13445B6887
S3250001A780DA68094B1A607047406862469100054A0A445060EEE700BFFC2800208429002018
S3250001A7A004290020902800208428002058B110B50C46094A11681831FFF79BF8012120465B
S3250001A7C0FFF7C0FD10BD4FF0500383F31188BFF36F8FBFF34F8FFEE78428002038B570B152
S3250001A7E00D4614460A4A11681831FFF777F80CB14FF0FF3521462846FFF7A4FD38BD4FF05A
S3250001A800500383F31188BFF36F8FBFF34F8FFEE78428002038B5C368DC6824B304F1180599
S3250001A8202846FFF77FF8184B1B682BBB251D2846FFF778F8E06A01238340144A11680B43FE
S3250001A840136000EB80002946114B03EB8000FFF745F8E26A0F4B1B68DB6A9A4211D9012052
S3250001A8600D4B186038BD4FF0500383F31188BFF36F8FBFF34F8FFEE729460848FFF72EF86B
S3250001A880E7E70020EEE700BFFC2800200429002090280020842800208429002040290020A4
S3250001A8A0034B1B680360034B1B684360704700BF3829002080290020F8B5C8B10C46054666
S3250001A8C0F9B1FEF7A7FE1B4B19686B68C81A2268B2F1FF3F26D0184E36682F68B74201D0CB
S3250001A8E08B4224D9824215D80023236001241AE04FF0500383F31188BFF36F8FBFF34F8F30
S3250001A900FEE74FF0500383F31188BFF36F8FBFF34F8FFEE75B1A134423602846FFF7C0FF13
S3250001A920002400E00024FEF797FE2046F8BD0124F9E700BF8029002038290020014B0122C6
S3250001A9401A60704784290020054B1B6833B1054B1B680BB100207047022070470120704724
S3250001A96054290020FC280020002849D038B50446C36A254A1268D26A934239D28269002A30
S3250001A98005DB214A1268D26AC2F105028261616903EB83031D4A02EB8303994205D01A4BE5
S3250001A9A01B68DB6AE362012038BD251D2846FEF7B9FF40B9E26A012303FA02F214490B68E6
S3250001A9C023EA02030B60104B1B68D86AE062012404FA00F30E4A11680B43136000EB80007E
S3250001A9E029460A4B03EB8000FEF778FF2046DBE7826C054B1B68DB6A9A4203D30020D3E7F8
S3250001AA00002070470120CFE784280020902800200429002000284CD038B50446274B1B6820
S3250001AA20834208D04FF0500383F31188BFF36F8FBFF34F8FFEE7C36C43B94FF0500383F379
S3250001AA401188BFF36F8FBFF34F8FFEE7013BC364C16A826C91422ED00BB1002038BD051DF1
S3250001AA602846FEF75FFF70B9E26A02EB82039B001349CB583BB9012303FA02F211490B6837
S3250001AA8023EA02030B60A06CE062C0F10503A361012404FA00F30B4A11680B43136000EB97
S3250001AAA080002946064B03EB8000FEF717FF2046D4E7002070470020D0E700BF842800207C
S3250001AAC09028002004290020002850D038B50446C36C43B94FF0500383F31188BFF36F8F4F
S3250001AAE0BFF34F8FFEE7826C8A4200D20A46E16A914201D0012B00D038BD1D4B1B68A3424E
S3250001AB002CD0E262A369002B02DBC2F10502A261626901EB8101174B03EB81018A42EBD18A
S3250001AB20251D2846FEF7FEFE40B9E26A012303FA02F211490B6823EA02030B60E06A01235B
S3250001AB4083400D4A11680B43136000EB80002946084B03EB8000FEF7C1FECDE74FF0500305
S3250001AB6083F31188BFF36F8FBFF34F8FFEE77047842800209028002004290020054B1B681F
S3250001AB8023B1044B1A68D36C0133D364014B1868704700BF84280020064B1A6813682BB91F
S3250001ABA00123036023B9D368186870470023F8E7002070478829002008B54160006191427D
S3250001ABC00CD8D21A83699A4201D3012008BD011D094B1868FEF78DFE0020F7E79A4201D2FD
S3250001ABE0994206D2011D054B1868FEF782FE0020ECE70120EAE700BF8C29002088290020EE
S3250001AC0038B5FEF707FD0F4B1B6813B1FEF724FD38BD0D4D2846FEF753FE0C4C2046FEF7DA
S3250001AC204FFE0B4B1D600B4B1C6000220C210A20FEF77AFF034B18600028E7D00649FFF74A
S3250001AC402FFAE3E7BC29002090290020A4290020882900208C2900208818040000B583B0FD
S3250001AC60FFF7CEFF0D4B1B685BB10D4B01930223009300234FF482720A490B48FFF7BEFBD0
S3250001AC8040B94FF0500383F31188BFF36F8FBFF34F8FFEE703B05DF804FB00BFBC29002023
S3250001ACA0C0290020901804009DAF0100B8B19C4603461848006858B300B585B00191029214
S3250001ACC0039305291CDCFFF73FFE022810D000231A4601A90F480068FEF765FF15E04FF0FB
S3250001ACE0500383F31188BFF36F8FBFF34F8FFEE70023069A01A907480068FEF754FF04E076
S3250001AD000023624601A9FEF7FAFF05B05DF804FB00207047BC29002070B582B01B4B1B68A4
S3250001AD201A6862B3DB681E68DC68251D2846FEF7F9FD236A2046984794F8283013F0040F01
S3250001AD40ECD0A36933449E4207D26360246129460E4B1868FEF7CDFDE0E7002100910B46DB
S3250001AD6032462046FFF7A2FF0028D7D14FF0500383F31188BFF36F8FBFF34F8FFEE7044A73
S3250001AD80106802490860136002B070BD882900208C29002038B50546FFF7ACFB0446074B18
S3250001ADA01B68834205D800232B60044B1C60204638BDFFF7B1FF01232B60F6E7B829002060
S3250001ADC070B582B006460D4617490968C968CC68201DFEF7A7FD94F828C01CF0040F08D1FE
S3250001ADE02CF0010C84F828C0236A2046984702B070BDA16933462A4631442046FFF7DCFE70
S3250001AE000028F1D0002100910B4632462046FFF74DFF0028E8D14FF0500383F31188BFF3EB
S3250001AE206F8FBFF34F8FFEE78829002070B582B006460C46FFF756FB01A8FFF7ABFF019BA6
S3250001AE4033BB05460CB9B04219D224B1124A12681268DAB901242246711B104B1868FFF76E
S3250001AE6033F9FFF7C5FBA8B94FF0E0234FF08052C3F8042DBFF34F8FBFF36F8F0AE0FFF729
S3250001AE80B7FB29463046FFF79BFF03E01C46E2E7FFF7AEFB02B070BD8C290020BC2900201E
S3250001AEA010B586B0002203A93B4B1868FEF78EFF00286ED0039B002BF4DB059C636913B10B
S3250001AEC0201DFEF72FFD02A8FFF764FF039B092BE8D8DFE803F00505053037500505303787
S3250001AEE094F8283043F0010384F82830049BA169024619442046FFF75FFE0028D2D0236AFE
S3250001AF002046984794F8283013F0040FCAD0A269002100910B46049802442046FFF7C6FE41
S3250001AF200028BFD14FF0500383F31188BFF36F8FBFF34F8FFEE794F8283023F0010384F815
S3250001AF402830AFE794F8283043F0010384F828300499A16131B10346024601442046FFF75A
S3250001AF602BFE9FE74FF0500383F31188BFF36F8FBFF34F8FFEE794F8283013F0020F04D089
S3250001AF8023F0010384F828308CE72046FEF79AFA88E706B010BD00BFBC29002000B583B0BF
S3250001AFA001A8FFF7F9FD0199FFF740FFFFF778FFF6E710B4CB7A012B51D90268136823F481
S3250001AFC08063136004680A7A236823F48053120302F480521343236004684A7A636823F4E7
S3250001AFE00053520302F400521343636004688A7A636823F40023D20402F4002213436360C5
S3250001B00002684C7B1368002C38D043F40043136004680A7BA36823F40063D20202F40062BA
S3250001B0201343A3604A68B2F1FF3F11D04B7B012B28D00B68B3FBF2F30468E26802F07F42E3
S3250001B0409BB21343E3600268536823F4801353608B7B032B4ED8DFE803F0422C371F04683D
S3250001B060226822F400725B0203F40073134323600268136843F480631360A3E723F40043C1
S3250001B0801360C5E70C685308B4FBF3F2C2F3420322F00F021343CFE70268136843F00403DF
S3250001B0A013600268136843F0080313605DF8044B70470268136823F00403136002681368CE
S3250001B0C043F008031360F1E70268136843F0040313600268136823F008031360E6E70268A1
S3250001B0E0136823F0040313600268136823F008031360DBE70268136823F00403136002682D
S3250001B100136823F008031360D0E730B404685579A368FDB143F00403A360537A022B6AD01D
S3250001B120032B00F0E980012B18D00468A36823F40073A3600468A36823F48073A360046879
S3250001B140A36823F48043A3600468636823F48043636064E023F00403A360DEE70468A3688F
S3250001B16023F40073A3600468A36823F48073A3600468A36823F48043A36005680C796B689E
S3250001B18023F0030304F0030423436B6005684C796B6823F00403A40004F0040423436B6073
S3250001B1A005688C796B6823F06003640104F0600423436B600468157A6368A5B143F48043C9
S3250001B1C063600468D57963688DB143F400436360D37923B304680D7C636923F07F4343EAC0
S3250001B1E0056363611BE023F480436360E9E723F400436360ECE70468636823F480436360F0
S3250001B2000468A36823F48043A3600468A36843F40073A3600468A36843F48073A36004689F
S3250001B22095786368002D00F0918043F4803363600468D5786368002D00F08C8043F400333D
S3250001B2406360046815796368002D00F0878043F4802363605378002B00F08480046863687D
S3250001B26043F48013636005680C786B6823F4C003640504F4C00423436B608B68002B77D0E1
S3250001B28005686C6904F07F4C23F07F434CEA03036B610468636843F4000363609379002B5E
S3250001B2A07FD0CB78012B69D00568CC796B6823F4E063240204F4E06423436B600468236827
S3250001B2C043F400532360046891F803C0236823F400634FEACC2C0CF4006C43EA0C03236041
S3250001B2E01378002B00F0A7804B78032B00F29880DFE803F06A75808B0468636823F48043CA
S3250001B300636005684C7B2B6823F4F813240404F4F81423432B6005688C7B2B6823F0F873D8
S3250001B320640504F0F87423432B600468CD7BA36845B143F40043A3600468A36843F48043A9
S3250001B340A3606CE723F40043A360F5E723F4803363606DE723F40033636072E723F4802356
S3250001B360636077E70468636823F48013636084E70468636823F4000363608FE704680D7B18
S3250001B380636823F07F4343EA0563636005688C786B6823F01003240104F0100423436B60E6
S3250001B3A08CE70468236823F400532360046891F807C0636823F4E0634FEA0C2C0CF4E06C91
S3250001B3C043EA0C0363608BE70268936823F0400393600268936823F08003936035E00268DA
S3250001B3E0936823F0400393600268936843F0800393602AE00268936843F0400393600268B2
S3250001B400936823F0800393601FE00268936843F0400393600268936843F08003936014E0D2
S3250001B4200268936823F0400393600268936823F08003936009E00268936823F040039360D2
S3250001B4400268936823F08003936030BC70470268936A23F4FF7323F00103C1F308010B4342
S3250001B460936270470368586A10F4604F02D1C0F3080070474FF6FF707047B1F5002F18D8C4
S3250001B480B1F5805F08D0B1F5005F05D00368DB6919421ED100207047B1F5805F04D00368DA
S3250001B4A0D86AC0F3404070470368D86AC0F300407047B1F5001F0ED80368DB6A04D013F4CC
S3250001B4C0000F0CD10020704713F4800F05D1002070470120704700207047012070470120B7
S3250001B4E0704711F4405F10D011F4005F06D00368DA6A42F40032DA62DB6A70470368DA6AD2
S3250001B50042F48032DA62DB6A704711F4804F05D00268936943F001039361704711F4003FCF
S3250001B52006D003681A6A42F480721A621B6A704703681962704710B411F0010F06D00468AB
S3250001B540E36A002A7DD043F40073E36211F0020F06D004682368002A77D043F080032360A8
S3250001B56011F0040F06D004682368002A71D043F04003236011F0080F06D004682368002A70
S3250001B5806BD043F48043236011F0100F06D00468E36A002A65D043F48073E36211F0200F3F
S3250001B5A006D004682368002A5FD043F02003236011F0400F06D004682368002A59D043F0E2
S3250001B5C08063236011F0800F06D004686368002A53D043F08003636011F4807F06D0046855
S3250001B5E02368002A4DD043F01003236011F4007F06D00468A368002A47D043F48063A3607A
S3250001B60011F4806F06D004682368002A41D043F48073236011F4605F06D00468A368002A3F
S3250001B6203BD043F00103A36011F4804F06D001680B68002A35D043F000630B605DF8044B64
S3250001B640704723F40073E36280E723F08003236086E723F0400323608CE723F480432360C7
S3250001B66092E723F48073E36298E723F0200323609EE723F080632360A4E723F080036360E1
S3250001B680AAE723F010032360B0E723F48063A360B6E723F480732360BCE723F00103A360EE
S3250001B6A0C2E723F000630B60C8E7402900F083801BD8202900F29480002900F09380013946
S3250001B6C01F2900F29180DFE801F04C538F5A8F8F8F618F8F8F8F8F8F8F688F8F8F8F8F8F1F
S3250001B6E08F8F8F8F8F8F8F8F8F6FB1F5007F70D011D9B1F5805F29D01BD9B1F5005F25D012
S3250001B700B1F5804F2BD103681B6813F0006F40F0858000207047802954D0B1F5807F06D1FC
S3250001B72003681B6813F0100F70D10020704700207047B1F5806F06D103681B6813F4807FA3
S3250001B74068D100207047B1F5006F06D103689B6813F0010F60D10020704700207047002066
S3250001B76070470368DB6A13F4007F3FD10020704703681B6813F0800F3AD100207047036821
S3250001B7801B6813F0400F35D10020704703681B6813F4804F30D1002070470368DB6A13F49D
S3250001B7A0807F2BD10020704703681B6813F0200F26D10020704703681B6813F0806F21D1F0
S3250001B7C00020704703685B6813F0800F1CD10020704703689B6813F4806F19D100207047E2
S3250001B7E0002070470020704700207047012070470120704701207047012070470120704785
S3250001B800012070470120704701207047012070470120704701207047012070470120704761
S3250001B82010B44FF49643436000230372437283720221C17203734373032282730122827487
S3250001B84055240477C175C374FF2484610375437583754FF0640C80F820C0037443744FF0DC
S3250001B860040C80F81EC04177C27780F82A3080F8243080F8253080F8263080F8273080F8EA
S3250001B880283080F8293080F82B3080F82C2080F82D305DF8044B704770B504460D46026885
S3250001B8A0136823F0010313600268D36A43F40046D66200BF00BF00BF00BF23F40043D36295
S3250001B8C00268D36A43F48046D66200BF00BF00BF00BF23F48043D362FFF76BFB05F1240202
S3250001B8E005F110012046FFF710FC2268136843F0010313606FF440512046FFF7F2FD70BDB7
S3250001B9000368186BC0F30260704703681A6812F0010F12D01A6822F001021A600268136B8C
S3250001B92023F44033090401F44031194311630268136843F00103136070471A6B22F44032E0
S3250001B940090401F4403111431963704703681A6812F0010F11D01A6822F001021A6002688B
S3250001B960136B23F0030301F00301194311630268136843F00103136070471A6B22F0030282
S3250001B98001F0030111431963704700008368924A1A644368914A1A6437293FD8DFE811F09C
S3250001B9A0380044004B0052005900610069007100790081008C009700A200AD00B800C300EC
S3250001B9C0CE00D900E400EF00FA000501100120012B01360141014C01570162016D01780120
S3250001B9E083018E019901A401AF01BA01C501D001DB01E601F101FC01070212021D022802D4
S3250001BA0033023E02490254025F026A0275028002836802229A60836800229A608268002326
S3250001BA201364426813647047836804229A60836800229A60F2E7836820229A608368002291
S3250001BA409A60EBE7836840229A60836800229A60E4E783684FF480729A60836800229A60D9
S3250001BA60DCE783684FF400729A60836800229A60D4E783684FF480629A60836800229A608F
S3250001BA80CCE783684FF400629A60836800229A60C4E783684FF480529A60836800229A60AF
S3250001BAA0BCE74268136A43F0010313624268136A23F001031362B1E74268136A43F002035F
S3250001BAC013624268136A23F002031362A6E74268136A43F0040313624268136A23F0040392
S3250001BAE013629BE74268136A43F0080313624268136A23F00803136290E74268136A43F0E3
S3250001BB00100313624268136A23F01003136285E74268136A43F0200313624268136A23F03C
S3250001BB20200313627AE74268136A43F0400313624268136A23F0400313626FE74268136A84
S3250001BB4043F4807313624268136A23F48073136264E74268136A43F4007313624268136AE1
S3250001BB6023F40073136259E74268136A43F4806313624268136A23F4806313624EE7426854
S3250001BB80136A43F4006313624268136A23F40063136243E74268136A43F480531362426882
S3250001BBA0136A23F48053136238E74268136A43F4005313624268136A23F4005313622DE743
S3250001BBC04268136A43F4804313624268136A23F48043136222E700BF9C1FC5C1777563708A
S3250001BBE04268136A43F4004313624268136A23F40043136212E74268136A43F480331362B3
S3250001BC004268136A23F48033136207E74268136A43F4003313624268136A23F400331362DD
S3250001BC20FCE64268136A43F4802313624268136A23F480231362F1E64268136A43F40023F7
S3250001BC4013624268136A23F400231362E6E64268136A43F4801313624268136A23F480138F
S3250001BC601362DBE64268136A43F4001313624268136A23F400131362D0E64268136A43F4C7
S3250001BC80800313624268136A23F480031362C5E64268136A43F4000313624268136A23F4B0
S3250001BCA000031362BAE64268136A43F0807313624268136A23F080731362AFE64268136A45
S3250001BCC043F0007313624268136A23F000731362A4E64268136A43F0806313624268136ABD
S3250001BCE023F08063136299E64268136A43F0006313624268136A23F0006313628EE64268F1
S3250001BD00136A43F0805313624268136A23F08053136283E64268136A43F00053136242686D
S3250001BD20136A23F00053136278E64268136A43F0804313624268136A23F0804313626DE6EF
S3250001BD404268536A43F0040353624268536A23F00403536262E64268536A43F008035362AE
S3250001BD604268536A23F00803536257E64268536A43F0100353624268536A23F010035362A1
S3250001BD804CE64268536A43F0200353624268536A23F02003536241E64268536A43F04003A2
S3250001BDA053624268536A23F04003536236E64268536A43F0800353624268536A23F080036A
S3250001BDC053622BE64268536A43F4806353624268536A23F48063536220E64268536A43F4A6
S3250001BDE0006353624268536A23F40063536215E64268536A43F4805353624268536A23F4EF
S3250001BE00805353620AE64268536A43F4005353624268536A23F400535362FFE54268536A2C
S3250001BE2043F4804353624268536A23F480435362F4E54268536A43F4801353624268536A30
S3250001BE4023F480135362E9E54268536A43F0807353624268536A23F080735362DEE54268DD
S3250001BE60536A43F0007353624268536A23F000735362D3E54268536A43F08063536242686D
S3250001BE80536A23F080635362C8E54268536A43F0006353624268536A23F000635362BDE5A0
S3250001BEA0BFF34F8F0549CA6802F4E062044B1343CB60BFF34F8F00BFFDE700BF00ED00E0A4
S3250001BEC00400FA050368014A1A63704711FF1510036800221A6370470268936823F00103FC
S3250001BEE0936070470268936823F00203936070470268936823F08003936070470268936860
S3250001BF0023F00403936070470268D36823F00203D36070470268D36823F00103D360704709
S3250001BF200268936823F008039360704710B50446FFF7C8FF236801225A602046FFF7C8FF76
S3250001BF4010BD10B50446FFF7BDFF23684FF400721A6023684FF480721A60236880221A60B1
S3250001BF60236840221A60236820221A60236810221A60236808221A60236804221A602368F0
S3250001BF8002221A60236801221A602046FFF7A0FF10BD10B50446FFF7ABFF2046FFF7A2FF60
S3250001BFA02046FFF799FF2046FFF7A8FF2046FFF7B7FF2046FFF7AEFF2046FFF7A5FF62689E
S3250001BFC0936823F0040393606268136823F0100313606268936823F00803936010BD0000D1
S3250001BFE038B504460D46FFF76DFF012D02D0022D0AD038BD2046FFF76BFF144A136923F09D
S3250001C0000403136130BFF4E76368114AC3F880206268136923F0030313616368DB6813F06F
S3250001C020300FFAD12046FFF7B4FF63680022C3F880202046FFF785FF2046FFF749FF034AC7
S3250001C040136943F00403136130BFD2E700ED00E0E42386FA1F2904D8012A12D0022A1FD067
S3250001C06002B17047026852F8213023F0020342F82130026852F8213023F0010342F8213000
S3250001C0807047026852F8213043F0020342F82130026852F8213023F0010342F821307047BC
S3250001C0A0026852F8213023F0020342F82130026852F8213043F0010342F82130D1E710B48E
S3250001C0C01346A2B9046854F8212022F4E0621B0203F4E063134344F82130026852F8213015
S3250001C0E043F0040342F821305DF8044B7047046854F8212022F0040244F82120006850F8DB
S3250001C100212022F4E0621B0203F4E063134340F82130E9E71F290AD8006850F8213023F437
S3250001C1207023120402F470221A4340F8212070471F2908D8036853F8212042F0807243F8BC
S3250001C140212053F8213070471F2908D80268D2F8C000012303FA01F10143C2F8C010704790
S3250001C16000680A78D0F8C83023F01F0302F01F021343C0F8C83070470368D3F8A00070477C
S3250001C18003684FF0FF32C3F8A020D3F8A030704710B4446863690120884023EA00038A40F1
S3250001C1A01A4362615DF8044B704710B4446823680120884023EA00038A401A4322605DF80B
S3250001C1C0044B7047426801238B4053607047426801238B4093607047426801238B40D36040
S3250001C1E0704743681A6901238B40134201D100207047012070470268136843F08003136080
S3250001C20070470268136823F08003136070470268136823F0011343F4803313607047026831
S3250001C220136843F001031360704770B504464FF0000C48E001229A40D2B242EA0E0E154318
S3250001C2400133DBB2072B15D801EBCC02D25C022AF0D0032A07D0012AF2D19A404EEA020E0F
S3250001C2605FFA8EFEECE701229A40D2B242EA0E0E1043E5E722680CEB8C0302EBC3021369D9
S3250001C28023F47F0343EA0040106122680CEB8C0302EBC302136923F47F4343EA052515613C
S3250001C2A022680CEB8C0302EBC3031B6923F0FF0343EA0E030CEB8C0002EBC00213610CF13A
S3250001C2C0010C5FFA8CFCBCF1020F04D80020864605460346B6E770BD002101704170817051
S3250001C2E0C1700F230371417181710123C3714EF660230381418113E000EBC1021A444FF019
S3250001C300000C82F83CC003EBC102043200EB4202A2F804C00133DBB2072BEDD90131C9B2BA
S3250001C320022901D80023F7E7012380F83C3000231BB1002380F85A307047C218002182F8A9
S3250001C340541003F1280200EB4202D18011810133DBB2EDE770B504460D46FFF752FF22681A
S3250001C360298953681B0C1B040B43536022686989D3681B0C1B040B43D36000201AE02668DC
S3250001C38003EBC002043205EB4202B2F804C000EB800103EB4101063156F82120120C120478
S3250001C3A042EA0C0246F821200133DBB2072BE6D90130C0B2022801D80023F7E705F13C0131
S3250001C3C02046FFF732FF21686A780B6823F40033520402F4003213430B602168AA780B6844
S3250001C3E023F40043D20392B213430B602168EA780B6823F4E043120302F4E04213430B607C
S3250001C40021682A790B6823F47063120202F4706213430B6021686A790B6823F02003520187
S3250001C42002F0200213430B602168AA790B6823F00C03920002F00C0213430B602168EA79A0
S3250001C4400B6823F00203520002F0020213430B600020034653B32268D2F8903123F0FF03A8
S3250001C4600343C2F89031616895F85A20CB6923F0070302F007021343CB612046FFF7BBFE41
S3250001C4802268136823F4402313602046FFF7C7FE2046FFF7B6FE21682A780B6823F440235A
S3250001C4A0920402F4402213430B6070BD03F1280205EB4202D688118941EA0641226803F15F
S3250001C4C0640602EB86025160EA1892F854201AB101229A401043C0B20133DBB2BAE70729A6
S3250001C4E062D8DFE801F0040F1B27333F4B5703681B681868016F21F0010102F001020A43A7
S3250001C5000267704703681B681B68196F21F00201520002F002020A431A67704703681B682C
S3250001C5201B68196F21F00401920002F004020A431A67704703681B681B68196F21F00801B1
S3250001C540D20002F008020A431A67704703681B681B68196F21F01001120102F010020A4302
S3250001C5601A67704703681B681B68196F21F02001520102F020020A431A67704703681B6877
S3250001C5801B68196F21F04001920102F040020A431A67704703681B681868016F21F080017B
S3250001C5A0D301DBB20B4303677047016070470023037043708370C370037143718371C371CD
S3250001C5C0037243728372C37270472DE9F84304460D4603681B681A68536D43F00403536539
S3250001C5E00A78027103681B681B68013203EBC2035A6842F020025A6003681B681B6802792C
S3250001C600013203EBC2035A6842F010025A604E7936B10B7813F0010F7BD04FF0000875E042
S3250001C6208A780978FFF75BFF6B78012B18D0002B2CD123681B681B682A78013203EBC203E8
S3250001C6405A6822F008025A6023681B681B682A78013203EBC2035A6842F004025A6015E079
S3250001C66023681B681B682A78013203EBC2035A6842F008025A6023681B681B682A7801327C
S3250001C68003EBC2035A6822F004025A602E787608236800223146186800F03BFD23680022AF
S3250001C6A03146186800F063FD236800223146186800F088FD236800223146186800F0FBFC88
S3250001C6C023682A793146186800F0A6FD236801223146186800F0CEFD2368EA78297818682D
S3250001C6E000F04EFE236801222978186800F0F0FD4FF0010854F8043B1B681A68536F43F07E
S3250001C7004003536728686968AA6807C44046BDE8F8830268126812680133DBB2013302EBF1
S3250001C720C3035A6842F020025A6003681B681A680B780133DBB2013302EBC3035A6842F0CD
S3250001C74010025A600F787F08036800223946186800F0B1FC236801223946186800F08AFDAB
S3250001C760AA7829782046FFF7BAFE29780131AA7AC9B22046FFF7B3FE2368EA78297818684E
S3250001C78000F0FEFD236829780131EA7AC9B2186800F0F6FD236801222978186800F098FDB3
S3250001C7A02368297801310122C9B2186800F090FD23682A793946186800F02EFD95F806801E
S3250001C7C0B8F1000F13D12B7A002B40F00E8195F80790B9F1000F00F0088122681068026865
S3250001C7E0126812F0200F00F0BA80984682E7236801223946186800F08CFC236800223946C5
S3250001C800186800F0DFFC6B7A032F0ED8DFE807F00235414D2268126811684A6E22F01002ED
S3250001C8201B0103F0100313434B662368186803681B6813F0200F5BD00022394600F097FC4E
S3250001C8406B78012B3DD0002B7FF454AF23681B681B682A78013203EBC2035A6822F008021D
S3250001C8605A6023681B681B682A78013203EBC2035A6842F004025A603CE72268126811688A
S3250001C8804A6E22F480521B0303F4805313434B66CBE72268126811684A6E22F480121B0553
S3250001C8A003F4801313434B66BFE72268126811684A6E22F080521B0703F0805313434B6632
S3250001C8C0B3E723681B681B682A78013203EBC2035A6842F008025A6023681B681B682A78B3
S3250001C8E0013203EBC2035A6822F004025A6001E70122394600F03BFC6B78B3B923681B68A9
S3250001C9001B682A78013203EBC2035A6842F008025A6023681B681B682A78013203EBC20334
S3250001C9205A6822F004025A60E4E6012B7FF4E2AE23681B681B682A78013203EBC2035A6888
S3250001C94022F008025A6023681B681B682A78013203EBC2035A6842F004025A60CAE600225B
S3250001C960394600F0D6FB236801223946186800F0FEFB236800223946186800F023FC6B783C
S3250001C980BBB923681B681B682A78013203EBC2035A6842F008025A6023681B681B682A7818
S3250001C9A0013203EBC2035A6822F004025A60C846A0E6012B01D0C8469CE623681B681B6844
S3250001C9C02A78013203EBC2035A6822F008025A6023681B681B682A78013203EBC2035A6855
S3250001C9E042F004025A60C84684E6002B50D0EE79002E4FD02368186803681B6813F0200F9C
S3250001CA007FF478AE0022394600F083FB236801223946186800F0ABFB236801223946186877
S3250001CA2000F0D0FB6B78BBB923681B681B682A78013203EBC2035A6842F008025A60236881
S3250001CA401B681B682A78013203EBC2035A6822F004025A60B0464DE6012B01D0B04649E662
S3250001CA6023681B681B682A78013203EBC2035A6822F008025A6023681B681B682A78013298
S3250001CA8003EBC2035A6842F004025A60B04631E6B0462FE698462DE610B483B003681B683A
S3250001CAA01C68236813F0200F13D0E36C9BB2ADF80630BDF806309BB28B4205D0BDF806300F
S3250001CAC09BB20133994204D1BDF806309BB2023399B20379013304EBC304A3681B0C1B04AF
S3250001CAE00B43A360437A6BB103681B681B6801790131C9B2013103EBC10083681B0C1B045B
S3250001CB001343836003B05DF8044B704703464A784AB98A78002A40F0BE80CA78002A00F0C3
S3250001CB20BC80012000E001200A7812B1002840F0E48012B9002800F0E28010B4002A00F06C
S3250001CB40AE801A681068D0F88C2042F48062C0F88C201A681068D0F88C2042F40062C0F8F8
S3250001CB608C201A681068D0F88C2042F48052C0F88C201A681068D0F88C2042F40072C0F85A
S3250001CB808C201A681468C87AD4F88C2022F48072000200F480700243C4F88C201A68106895
S3250001CBA0D0F88C2042F08002C0F88C201A6814684878A26D22F01002000100F010000243AB
S3250001CBC0A2651A6814688878A26D22F02002400100F020000243A2651A681468C878A26D1C
S3250001CBE022F04002800100F040000243A2651A6814680879A26D22F00202400000F0020007
S3250001CC000243A2651A6810684C79826D22F00102224382651A6814680A7A101E18BF01200A
S3250001CC20A26D22F0080242EAC002A2651A6814688879D4F88C2022F01002000100F0100031
S3250001CC400243C4F88C201A681468C879D4F88C2022F02002400100F020000243C4F88C2037
S3250001CC601A681468487AD4F88C2022F00402800000F004000243C4F88C201B681A68897A34
S3250001CC80D2F88C3023F001030B43C2F88C3001205DF8044B7047012046E7002044E71A6895
S3250001CCA01068D0F88C2042F48022C0F88C201A681068D0F88C2042F40022C0F88C201A6899
S3250001CCC01068D0F88C2042F48012C0F88C201A681068D0F88C2042F40032C0F88C201A6879
S3250001CCE01468C87AD4F88C2022F48032000400F480300243C4F88C2050E700207047704715
S3250001CD0038B505460160002407E005EB041029460430FFF74AFC0134E4B2072CF5D938BDC4
S3250001CD204FF48033036001220271002343718371C371037243728372C37203734373827389
S3250001CD40C37303744374837408E003EB430202440021D174117551750133DBB2032BF4D9A2
S3250001CD600023C377012380F82030704770B504460D4603681A68536D43F0040353650368E0
S3250001CD801A68D36C1B0C1B04D36403681E6851F8043BB268120C12049BB21343B360FFF7DB
S3250001CDA0B5FEAB7C002B00F0BD80236819682A7CCB6F23F40043D20392B21343CB672368C8
S3250001CDC019686A7CCB6F23F47063120202F470621343CB67002320E022681168E87CCA6F9A
S3250001CDE022F001020243CA6722681068297DC26F22F01002090101F010010A43C267226898
S3250001CE001068697DD0F8882022F0010201F001010A43C0F888200133DBB2032B77D8032B1C
S3250001CE20F9D801A252F823F0D9CD010039CE010081CE0100C9CE010022681068A97DC26F2A
S3250001CE4022F00202490001F002010A43C26722681068E97DC26F22F02002490101F02001D9
S3250001CE600A43C26722681068297ED0F8882022F00202490001F002010A43C0F88820CAE76B
S3250001CE8022681068697EC26F22F00402890001F004010A43C26722681068A97EC26F22F0F8
S3250001CEA04002890101F040010A43C26722681068E97ED0F8882022F00402890001F0040187
S3250001CEC00A43C0F88820A6E722681068297FC26F22F00802C90001F008010A43C267226857
S3250001CEE01068697FC26F22F08002C901C9B20A43C26722681068A97FD0F8882022F0080295
S3250001CF00C90001F008010A43C0F8882083E723681968AA7C4B6D23F06003520102F0600229
S3250001CF2013434B652368196895F820208B6E23F0C0039201D2B213438B6623681968EA7F69
S3250001CF408B6E23F03F0302F03F0213438B6623681A68536F43F04003536770BD10B40268A8
S3250001CF60536F0023536702680421516502685360026811681360026893600268D3640268EB
S3250001CF80116D1365026893650268D3650268136602685366026893660268D16ED3660268DB
S3250001CFA01367026893670268D3670268C2F880300268C2F884300268C2F888300268C2F83C
S3250001CFC08C300268C2F890300268C2F894300268C2F898300268C2F89C300268C2F8B030E2
S3250001CFE00268C2F8D8300FE001685A1C01EBC20100244C60016801EBC2018C6001682C33E5
S3250001D00001EB83035C60D3B2072BEDD90023032B08D8026803F12801002442F821400133B3
S3250001D020DBB2F4E75DF8044B7047012303700023437083700323C370704738B504460D462C
S3250001D040FFF78CFF2268536D43F0040353652268536D43F00103536521682A780B6823F022
S3250001D0601803D20002F0180213430B602168AA780B6823F0070302F0070213430B6021686F
S3250001D080EA78D1F8843023F0C0039201D2B21343C1F8843021686B781A1E18BF01220B68E9
S3250001D0A023F0200343EA42130B602268536F43F04003536738BD03292AD8DFE801F0020CE1
S3250001D0C016200368596E21F00801D20002F008020A435A6670470368596E21F40061D202B9
S3250001D0E002F400620A435A6670470368596E21F40021D20402F400220A435A66704700688B
S3250001D100416E21F00061D30603F000630B434366704703292AD8DFE801F0020C1620036875
S3250001D120596E21F00201520002F002020A435A6670470368596E21F40071520202F400728D
S3250001D1400A435A6670470368596E21F40031520402F400320A435A6670470068416E21F022
S3250001D1600071530603F000730B4343667047032927D8DFE801F00209131D01684B6E23F077
S3250001D18001031A434A6670470368596E21F48071120202F480720A435A6670470368596E96
S3250001D1A021F48031120402F480320A435A6670470068416E21F08071130603F080730B43BA
S3250001D1C043667047032926D8DFE801F0020B141E01684B6E23F08003D201D2B21A434A66AB
S3250001D1E0704701684B6E23F40043D20392B21A434A66704701684B6E23F40003D20502F40F
S3250001D20000021A434A66704701684B6E23F0004343EAC2724A66704703292AD8DFE801F01B
S3250001D220020C16200368596E21F04001920102F040020A435A6670470368596E21F480418C
S3250001D240920302F480420A435A6670470368596E21F48001920502F480020A435A6670471B
S3250001D2600068416E21F08041930703F080430B434366704703292AD8DFE801F0020C162096
S3250001D2800368596E21F02001520102F020020A435A6670470368596E21F40051520302F415
S3250001D2A000520A435A6670470368596E21F40011520502F400120A435A6670470068416EBF
S3250001D2C021F00051530703F000530B4343667047072954D8DFE801F0040E18222C36404A4B
S3250001D2E00368196821F48031120402F480320A431A6070470368196821F40031520402F4BB
S3250001D30000320A431A6070470368196821F48021920402F480220A431A607047036819681C
S3250001D32021F40021D20402F400220A431A6070470368196821F48011120502F480120A43C6
S3250001D3401A6070470368196821F40011520502F400120A431A6070470368196821F4800124
S3250001D360920502F480020A431A6070470068016821F40001D30503F400030B4303607047F8
S3250001D380072951D8DFE801F0040E181F29333D470368D96E21F01001120102F010020A4314
S3250001D3A0DA6670470368D96E21F02001520102F020020A43DA6670470168CB6E23F0010327
S3250001D3C01A43CA6670470368D96E21F00201520002F002020A43DA6670470368D96E21F0ED
S3250001D3E00401920002F004020A43DA6670470368D96E21F00801D20002F008020A43DA662C
S3250001D40070470368D96E21F48071120202F480720A43DA6670470068C16E21F400715302E4
S3250001D42003F400730B43C36670470268936D43F0800393657047002303704370704710B4BA
S3250001D4400268936843F00103936004680A78A36823F00803D20002F008021343A360006890
S3250001D4604A78836823F00403920002F00402134383605DF8044B704700230370054A426039
S3250001D4800372C360037443748374C37401230375704700BF40420F00032900F2918030B5DA
S3250001D4A00346006892F813C000EB011EDEF8280020F002004FEA4C0C0CF0020C40EA0C006C
S3250001D4C0CEF82800186892F800C000EB011EDEF8280020F00C004FEA8C0C0CF00C0C40EA5A
S3250001D4E00C00CEF82800881C00011C6855682550186892F808C000EB011EDEF8280020F4E2
S3250001D50000004FEACC5C0CF4000C40EA0C00CEF82800186800EB011EDEF8280020F070600B
S3250001D52092F80CC04FEA0C6C0CF0706C40EA0C00CEF82800186892F810C000EB011EDEF827
S3250001D540280020F480204FEA8C4C0CF4802C40EA0C00CEF82800186892F811C000EB011E22
S3250001D560DEF8280020F400304FEA4C4C0CF4003C40EA0C00CEF82800186892F812C000EB6A
S3250001D580011EDEF8280020F480304FEA0C4C0CF4803C40EA0C00CEF82800107D38B11A683A
S3250001D5A0012303FA01F113691943116130BD1A68012000FA01F1136923EA01011161F5E7B2
S3250001D5C0002070470F2903D803685A691143596170470F2902D80368D960DB6870472DE9A1
S3250001D5E0F0475C1C24F0010606EB4206802E00F2BD809A46D34200F0BC804AB112F001071E
S3250001D60002D0561CF6B200E016461FB1012701E01646174643B306EB5404E4B2013CE4B2A1
S3250001D6203F2C00D93F2413F0010321D1D0F800E0DEF80CCC2CF47C5C240204F47C544CEAD1
S3250001D6400404CEF80C4CD0F800C0DCF80C4C24F4FE04360406F4FE062643CCF80C6C4FF0B3
S3250001D660000C644666461FE022B1741EE4B2DDE70123DBE714461346D8E7002F72D0026850
S3250001D6800EF5406E42F82E80E21C92B2066802F5406246F822900434A4B20022174635E08F
S3250001D6A00CF1010C1FFA8CFC91F849E0E645F4D90CEB8C0ECD6C05EB8E0E9EF80980B8F1F0
S3250001D6C0010FEDD19EF80880B8F1000FE8D00136DEF80480DEF8109029F0604904F5406E77
S3250001D6E0056845F82E8004F1010E1FFA8EFE0EF5406E056845F82E9004F1020E1FFA8EFE5F
S3250001D700B242BAD07446CBE7013292B291F849C0944529D9CE6C02EB820C06EB8C0C9CF862
S3250001D72009E0BEF1010FEFD19CF80860002EEBD10137DCF804E0DCF81060C6F30A0C4CEA5B
S3250001D7400E4604F5406E056845F82E600134A4B2BA45D9D17BB1036804F5406443F8246068
S3250001D760012004E0744698E7012000E00020BDE8F0870020FBE70120F9E700002DE9F04FCF
S3250001D780551C25F001065F1C06EB5706802E00F20D8190467C08DA4200F00B8132B112F027
S3250001D7A0010F01D06D0802E0550800E0154663B3013405EB5404E4B2013CE4B23F2C00D952
S3250001D7C03F2413F0030202D0C2F10402D2B20768D7F80C6C26F47C56240204F47C543443C1
S3250001D7E0C7F80C4C0668D6F80C4C24F4FE042D0405F4FE052543C6F80C5C4FF0000C6446AD
S3250001D800E646E346654666463BE01AB16C1EE4B21A46DCE71446DAE745F0804C076804F5A8
S3250001D820406E47F82EC004F1010C1FFA8CFC07680CF5406C47F82C500234A4B24FF0000CB5
S3250001D840E0465AE0D9F80460AE4239D94BF0804747EA060B066804F5406946F829B004F1CA
S3250001D86001091FFA89F9066809F5406946F829500234A4B2F04565D000260CF1010C1FFAF1
S3250001D8808CFC91F84990E145D8D90CEB8C09CF6C07EB890999F809A0BAF1010FEDD199F831
S3250001D8A008A0BAF1000FE8D00EF1010E002EC9D1D9F80450F045AFD056464FF0000BDCE7EF
S3250001D8C045F0804B3546C5E75FFA8CFC3EE0DEF80460C5F30A0E76452CD945EA0645066869
S3250001D8E004F5406E46F82E500134A4B2434535D03E460CF1010C1FFA8CFC91F84970674589
S3250001D90022D90CEB8C0ECF6C07EB8E0E9EF80970012FEED19EF80870002FEAD108F10108B3
S3250001D920002ED4D1DEF8045045F080454345CBD00126DEE746F08046DFF87CE00EEA054569
S3250001D9403543CCE7002679E74FF0000C022A18D0032A1DD0012A04D0012028E04FF0000C23
S3250001D960F4E7CB6C0CEB8C0C03EB8C0CDCF8043045EA0345036804F5406443F82450012022
S3250001D98015E0036804F5406443F8245001200EE0036804F5406243F82250631C9BB20268DC
S3250001D9A003F5406342F82350012000E00020BDE8F08F0020FBE700BF0000FF072DE9F04FB7
S3250001D9C0551C25F001065F1C06EB5706802E00F2FF8090467C08DA4200F0FD8032B112F003
S3250001D9E0010F01D06D0802E0550800E0154663B3013405EB5404E4B2013CE4B23F2C00D910
S3250001DA003F2413F0030202D0C2F10402D2B20768D7F80C6C26F47C56240204F47C5434437E
S3250001DA20C7F80C4C0668D6F80C4C24F4FE042D0405F4FE052543C6F80C5C4FF0000CE646E8
S3250001DA406646E3466446654639E01AB16C1EE4B21A46DCE71446DAE706680EF5406C46F8F8
S3250001DA602C400EF1010C1FFA8CFC06680CF5406C46F82C700EF1020E1FFA8EFE4FF0000C92
S3250001DA80E04650E0D9F804504BEA050B05680EF5406945F829400EF101091FFA89F90568EF
S3250001DAA009F5406945F829B00EF1020E1FFA8EFEB04552D000250CF1010C1FFA8CFC91F87E
S3250001DAC04990E145DAD90CEB8C09CF6C07EB890999F809A0BAF1010FEDD199F808A0BAF1AB
S3250001DAE0000FE8D00136002DCCD1D9F8047047F00044B045B0D055464FF0000BDBE75FFA22
S3250001DB008CFC2EE0756844EA054405680EF5406645F826400EF1010E1FFA8EFE3D460CF128
S3250001DB20010C1FFA8CFC91F84960664517D90CEB8C06CF6C07EB8606777A012FEFD1377A8F
S3250001DB40002FECD108F10108002DDBD1746844F000444345D3D00125E1E700258EE74FF0B1
S3250001DB60000C022A15D0032A1AD0012A01D001202FE0CB6C0CEB8C0C03EB8C0CDCF80430EA
S3250001DB8044EA034403680EF5406E43F82E4001201FE003680EF5406E43F82E40012018E046
S3250001DBA0CB6C0CEB8C0C03EB8C0CDCF8043044EA034403680EF5406243F822400EF10103E5
S3250001DBC09BB2026803F5406342F82340012000E00020BDE8F08F0020FBE7000070B50025BE
S3250001DBE0AC462B462A460CE00132D2B21CE0002400E00C24A54200D225460CF1010C5FFAF1
S3250001DC008CFC91F849E0E64542D90CEB8C0ECC6C04EB8E0E9EF80940012CEED19EF8084080
S3250001DC20002CE1D10133DBB29EF80A400F2CDED801A656F824F000BFF5DB0100F5DB010003
S3250001DC40F5DB0100F5DB0100F5DB0100F5DB0100F5DB0100F5DB0100F5DB0100F3DB010037
S3250001DC6079DC01007DDC010081DC010085DC010089DC01008DDC01001024BBE71424B9E7AF
S3250001DC801824B7E72024B5E73024B3E74024B1E74C797CB1103515D4C5F38704013C0668CB
S3250001DCA0D6F80C5C25F0F845A40604F0F8442C43C6F80C4C91F85540012C08D0022C09D04C
S3250001DCC014B170BD0335E7E7FFF789FCF9E7FFF755FDF6E7FFF772FEF3E700BF10B50446B7
S3250001DCE00268136823F0005313600268D2F80C3C43F00043C2F80C3C0268D2F8143C43F0B4
S3250001DD000063C2F8143C0268D2F8103C23F00043C2F8103C0268D2F8103C23F08043C2F8A3
S3250001DD20103C0268D2F8103C23F00053C2F8103C0268D2F8103C23F08053C2F8103CFFF742
S3250001DD404DFF2268D2F80C3C23F01F03C2F80C3C10BD00238360036143618361C360C36197
S3250001DD6043628362C362036201220270C37043714FF0FF3242638263C26380F8443043704E
S3250001DD80837080F8303080F8453080F8473080F8483080F8513080F8503080F8523080F882
S3250001DDA0533080F84930C36470470268136823F0804313600268136823F080531360036833
S3250001DDC01B6813F0807FFAD17047000003681A6812F4801F35D01A6822F000421A6010E05E
S3250001DDE0012B09D0022B26D0032B0AD14268136943F48053136104E04268136943F4806323
S3250001DE00136103681B6813F4801F1AD043681B4A1A64037C002BE3D14268136943F400734D
S3250001DE20136143681A6912F4007FEAD11A6942F400721A61E5E74268136943F40063136153
S3250001DE40DFE70268136843F00073136003681A6812F0007FFAD11A6842F080421A60026864
S3250001DE60136843F08053136003681A6812F0807FFAD01B6813F0006FF6D0704777756370BE
S3250001DE8091F800C0006800F18002D0F8003CC3F30143032B03D8DFE803F00A040608002159
S3250001DEA006E0182104E0282102E0482100E01021890843B90CFB01F302EB83031A6842F004
S3250001DEC040621A607047012B10D0022B1DD0144BA3FB0C03ACEB030003EB5003C3F38F0313
S3250001DEE05B000CFB013302EB8303E7E70D4BA3FB0C03ACEB030003EB5003C3F30F135B0031
S3250001DF000CFB013302EB8303D8E7074BA3FB0C0303F0F8030CFB013302EB8303CEE700BF7E
S3250001DF202549922487611886ABAAAAAA10B591F800E0036803F1800CD3F8003CC3F301436D
S3250001DF40032B03D8DFE803F00A040608002206E0182204E0282202E0482200E01022920873
S3250001DF60A3B90EFB02F20CEB820C0CF1080C91F800E0036803F18000D3F8003CC3F3014362
S3250001DF80032B2FD8DFE803F036303234012B10D0022B1DD05B4BA3FB0E43AEEB030403EB76
S3250001DFA05403C3F38F035B000EFB02320CEB820CDBE7554BA3FB0E43AEEB030403EB540368
S3250001DFC0C3F30F135B000EFB02320CEB820CCCE74E4BA3FB0E4303F0F8030EFB02320CEBE8
S3250001DFE0820CC2E7002206E0182204E0282202E0482200E01022920893B90EFB02F200EB47
S3250001E0008202907800F00F000F2835D8DFE800F037373737373737373736393B3D3F4143DA
S3250001E020012B10D0022B1DD0364BA3FB0E43AEEB030403EB5403C3F38F035B000EFB02327E
S3250001E04000EB8202DDE7304BA3FB0E43AEEB030403EB5403C3F30F135B000EFB023200EBDC
S3250001E0608202CEE7294BA3FB0E4303F0F8030EFB023200EB8202C4E7002000E00C20002369
S3250001E08026E01020FBE71420F9E71820F7E72020F5E73020F3E74020F1E7012A0DD0022A85
S3250001E0A024D0032A12D1CA1892F808E0DCF8002042EA0E024CF8042B08E0CA1892F808E022
S3250001E0C0DCF8002042EA0E42CCF800200133DBB2834215D213F00302DFD10022CCF80020BA
S3250001E0E0CA18127A1206CCF80020EFE7CA1892F808E0DCF8002042EA0E22CCF80020E5E785
S3250001E10010BD00BF2549922487611886ABAAAAAA036803F18002D3F8003CC3F30143032B09
S3250001E12003D8DFE803F00A040608002006E0182004E0282002E0482000E0102080082BB9F7
S3250001E14001FB00F002EB800008307047012B10D0022B1DD0134BA3FB01C3A1EB030C03EB01
S3250001E1605C03C3F38F035B0001FB003002EB8000EAE70D4BA3FB01C3A1EB030C03EB5C038A
S3250001E180C3F30F135B0001FB003002EB8000DBE7064BA3FB01C303F0F80301FB003002EB30
S3250001E1A08000D1E72549922487611886ABAAAAAA30B50D78036803F18002D3F8003CC3F3C5
S3250001E1C00143032B03D8DFE803F00A040608002406E0182404E0282402E0482400E010243D
S3250001E1E0A4089BB905FB04F302EB83039C465B8803F00F030F2B35D8DFE803F03737373707
S3250001E200373737373736535557595B5D012B10D0022B1DD06C4BA3FB05C3A5EB030C03EBCE
S3250001E2205C03C3F38F035B0005FB043302EB8303DCE7664BA3FB05C3A5EB030C03EB5C0365
S3250001E240C3F30F135B0005FB043302EB8303CDE75F4BA3FB05C303F0F80305FB043302EB04
S3250001E2608303C3E7002300E00C2381F84830DCF8003013F4001F20D0DCF8043023F060436C
S3250001E2804B600CF1080C0D78036803F18004D3F8003CC3F30143032B15D8DFE803F01C164B
S3250001E2A0181A1023E1E71423DFE71823DDE72023DBE73023D9E74023D7E7DCF80430C3F337
S3250001E2C08A434B60DDE7002206E0182204E0282202E0482200E01022920893B905FB02F253
S3250001E2E004EB8202927802F00F020F2A35D8DFE802F037373737373737373736393B3D3F83
S3250001E3004143012B10D0022B1DD02F4BA3FB05E3A5EB030E03EB5E03C3F38F035B0005FBB9
S3250001E320023204EB8202DDE7284BA3FB05E3A5EB030E03EB5E03C3F30F135B0005FB02321B
S3250001E34004EB8202CEE7224BA3FB05E303F0F80305FB023204EB8202C4E7002200E00C222B
S3250001E360002317E01022FBE71422F9E71822F7E72022F5E73022F3E74022F1E7BEF1010FF7
S3250001E38014D0BEF1020F16D05CF8045BCC1825720133DBB2934214D213F0030EEED19CF8DB
S3250001E3A0034001EB030E8EF80840F1E7BCF80250CC182572ECE7DCF80040240ACD182C7257
S3250001E3C0E6E703689B6830BD2549922487611886ABAAAAAA01F01F02012393403F2902D96F
S3250001E3E00268536770471F2902D90268D362704702681363704701F01F02012393403F29BA
S3250001E40005D90268526F13405BB1012070471F2903D90268D26A1340F6E70268126B134081
S3250001E420F2E700207047437C032B04D0022B0BD0012B10D0704702684FF0FF33536702689A
S3250001E440D36202681363704702684FF0FF33D36202681363704703684FF0FF321A63E9E71A
S3250001E46001F01F02012393403F2904D90268D16E0B43D36670471F2904D90268516A0B43C8
S3250001E480536270470268916A0B43936270470000F8B506460C4615461FFA82FC026802F110
S3250001E4A08000D2F8002CC2F30142032A03D8DFE802F00A040608002306E0182304E0282397
S3250001E4C002E0482300E010234FEA930E002A39D10CFB0EF300EB83031A466068217A002962
S3250001E4E05CD0196841F4C0011960596801F0604120F0604001435960A17A136823F47023B9
S3250001E5001360090401F470210B431360E17A23F00040106023F04043136029B143F00041B8
